:100000000C943E010C946F010C946F010C946F01E1
:100010000C946F010C946F010C946F010C946F01A0
:100020000C946F010C946F010C946F010C946F0190
:100030000C946F010C946F010C946F010C946F0180
:100040000C946F010C946F010C946F010C946F0170
:100050000C946F010C946F010C946F010C94C50803
:100060000C946F010C948F080C9465080C946F012C
:100070000C946F010C946F010C946F010C946F0140
:100080000C946F010C946F010C946F010C946F0130
:100090000C946F010C946F010C946F010C946F0120
:1000A0000C946F010C946F010C946F010C946F0110
:1000B0000C946F010C946F010C946F010C946F0100
:1000C0000C946F010C946F010C946F010C946F01F0
:1000D0000C946F010C946F010C946F010C946F01E0
:1000E0000C946F010C94CA010C94DE020C941E0453
:1000F0000C941D040C94E1020C9411030C945D0209
:100100000C940D030C94EB020C94A7010C940703C0
:100110000C94DA020C94FF020C94D8010C94F502B2
:100120000C94F1020C9410020C94E7020C94CC0293
:100130000C94B6010C94FE050C94F9020C94030384
:100140000C940C030C940F090C94D6020C94D2025C
:100150000C9471010C943409000021002400270044
:100160002A002D00300033000101000004010701C6
:100170000A0100002200250028002B002E0031007B
:10018000340002010000050108010B0100002000FD
:100190002300260029002C002F003200000100005F
:1001A00003010601090105050505070508080808FA
:1001B000020202020A0A08080404040401010101FF
:1001C00001010101030303030303030304070707FA
:1001D0000C0C0C0C0C0C0C0C02020202060606069F
:1001E000060606060B0B0B0B0B0B0B0B010210206C
:1001F000200808102040102040800201020108045D
:1002000002010102040810204080804020100804F0
:100210000201800402018040201008040201080449
:10022000020101020408102040800102040810208D
:10023000408000000A0B02090C0D0E0807030401A0
:1002400000000000000000000000000000000000AE
:10025000000000000000000000000000000012117B
:10026000100000000000000000000000000000007E
:10027000000000000000000034090F0911241FBE17
:10028000CFEFD1E2DEBFCDBF00E00CBF25E0A2EA98
:10029000B3E001C01D92AA30B207E1F713E0A0E07D
:1002A000B2E0E4E7FFE100E00BBF02C007900D926F
:1002B000A23AB107D9F711E0CDE3D1E000E006C0E2
:1002C00021970109802FFE010E948A0DCC33D107AE
:1002D00080E00807A9F70E940E0A0C94A80F0C945E
:1002E0000000AF92BF92CF92DF92EF92FF920F93F6
:1002F0001F93CF93DF936C017B018B01040F151FBC
:10030000EB015E01AE18BF08C017D10759F0699123
:10031000D601ED91FC910190F081E02DC601199577
:10032000892B79F7C501DF91CF911F910F91FF9034
:10033000EF90DF90CF90BF90AF900895FC01448183
:100340005581608171818EEE94E00C947101FC0105
:10035000538D448D252F30E0842F90E0821B930B2A
:10036000541710F0CF96089501970895FC01918DD0
:10037000828D981761F0A28DAE0FBF2FB11D5D96D3
:100380008C91928D9F5F9F73928F90E008958FEF75
:100390009FEF0895FC01918D828D981731F0828D29
:1003A000E80FF11D858D90E008958FEF9FEF089580
:1003B000FC01918D228D892F90E0805C9F4F821BE4
:1003C00091098F739927089581EC93E00E94D801D9
:1003D00021E0892B09F420E0822F0895FC01A48DEF
:1003E000A80FB92FB11DA35ABF4F2C91848D90E057
:1003F00001968F739927848FA689B7892C93A0893A
:10040000B1898C91837080648C93938D848D9813C3
:1004100006C00288F389E02D80818F7D8083089556
:10042000EF92FF920F931F93CF93DF93EC0181E044
:10043000888F9B8D8C8D98131AC0E889F9898081EB
:1004400085FF15C09FB7F894EE89FF896083E8891E
:10045000F98980818370806480839FBF81E090E010
:10046000DF91CF911F910F91FF90EF900895F62E9D
:100470000B8D10E00F5F1F4F0F731127E02E8C8D37
:100480008E110CC00FB607FCFACFE889F98980817C
:1004900085FFF5CFCE010E94EE01F1CFEB8DEC0F81
:1004A000FD2FF11DE35AFF4FF0829FB7F8940B8F99
:1004B000EA89FB8980818062CFCFCF93DF93EC0103
:1004C000888D8823B9F0AA89BB89E889F9898C913C
:1004D00085FD03C0808186FD0DC00FB607FCF7CFF8
:1004E0008C9185FFF2CF808185FFEDCFCE010E94F8
:1004F000EE01E9CFDF91CF91089580E090E0892B64
:1005000029F00E94E40181110E94000080E090E047
:10051000892B49F080E090E0892B29F00E940000AF
:1005200081110E94000080E090E0892B49F080E07A
:1005300090E0892B29F00E94000081110E940000A8
:1005400080E090E0892B49F080E090E0892B29F051
:100550000E94000081110C940000089581508231A6
:1005600008F05AC0E82FF0E08827E654FD4F8F4F7F
:100570000C948A0DDA02DE02CC02D202D6020C03FF
:10058000E102E702EB02F102F502F902FF020303C6
:100590000C0307030D031103809180008F77809374
:1005A00080000895809180008F7DF9CF8091800038
:1005B000877FF5CF84B58F7784BD089584B58F7D0F
:1005C000FBCF8091B0008F778093B0000895809129
:1005D000B0008F7DF9CF809190008F77809390004D
:1005E0000895809190008F7DF9CF80919000877F52
:1005F000F5CF8091A0008F778093A000089580911F
:10060000A0008F7DF9CF8091A000877FF5CF8091EA
:1006100020018F77809320010895809120018F7DA4
:10062000F9CF80912001877FF5CFCF93DF93282FDB
:1006300030E0F901EE5CFD4F8491F901E451FE4F89
:10064000D491F901EA55FE4FC491CC23A1F0811158
:100650000E94AE02EC2FF0E0EE0FFF1FE457FE4FBA
:10066000A591B491EC91ED2381E090E009F480E054
:10067000DF91CF91089580E090E0FACF1F93CF9360
:10068000DF93282F30E0F901EE5CFD4F8491F901F2
:10069000E451FE4FD491F901EA55FE4FC491CC23A9
:1006A000A9F0162F81110E94AE02EC2FF0E0EE0FA0
:1006B000FF1FEE58FE4FA591B4918FB7F894EC91BF
:1006C000111108C0D095DE23DC938FBFDF91CF914D
:1006D0001F910895DE2BF8CFCF93DF9390E0FC01BC
:1006E000E451FE4F24918A559E4FFC01849188234A
:1006F000D1F090E0880F991FFC01E85AFE4FA591B8
:10070000B491FC01EE58FE4FC591D491623071F462
:100710009FB7F8943C91822F809583238C93E88136
:100720002E2B28839FBFDF91CF9108958FB7F89428
:10073000EC912E2B2C938FBFF6CF863308F0865387
:1007400020917B00982F9870277F922B90937B00AD
:100750008770806480937C0080917A0080648093AD
:100760007A0080917A0086FDFCCF8091780090918C
:10077000790008953FB7F8948091A8039091A90358
:10078000A091AA03B091AB0326B5A89B05C02F3F4B
:1007900019F00196A11DB11D3FBFBA2FA92F982FA7
:1007A0008827BC01CD01620F711D811D911D42E0A2
:1007B000660F771F881F991F4A95D1F708958F926A
:1007C0009F92AF92BF92CF92DF92EF92FF924B0136
:1007D0005C010E94BA036B017C010E94BA036C1990
:1007E0007D098E099F09683E734081059105A8F334
:1007F00021E0821A9108A108B10888EEC80E83E0B2
:10080000D81EE11CF11C81149104A104B10429F744
:10081000FF90EF90DF90CF90BF90AF909F908F9020
:1008200008952FB7F8946091A4037091A503809167
:10083000A6039091A7032FBF0895089590E080E04C
:100840000895CF93DF9361E087E30E943E0360E069
:100850008DE30E943E03C1E8DCE061E086E30E9494
:100860003E0361E08CE30E943E0361E070E080E0C3
:1008700090E00E94DF0360E086E30E943E0360E0B8
:100880008CE30E943E03219741F768E873E180E022
:1008900090E00E94DF0360E087E30E943E0361E096
:1008A0008DE30E943E03C1E8DCE061E086E30E9444
:1008B0003E0361E08CE30E943E0361E070E080E073
:1008C00090E00E94DF0360E086E30E943E0360E068
:1008D0008CE30E943E03219741F76FEF77EE86E7A6
:1008E00098E4DF91CF910C94DF030E941104609390
:1008F000B4037093B5038093B6039093B7038091CC
:1009000008029091090201969093090280930802CF
:1009100081E08093B80308950F931F930E94110400
:100920002091A203222399F00091B4031091B50302
:100930002091B6033091B703601B710B820B930BB0
:10094000653F71408105910510F01092A2031F913F
:100950000F910895CF93DF93EC0160E08E810E94A8
:100960003E0361E08E810E943E0360E08E810E9422
:100970003E038BE891E00197F1F7DF91CF91089565
:10098000CF92DF92EF92FF920F931F93CF93DF935B
:100990006C017C0187E0E80EF11CD0E0C0E0062F7E
:1009A00010E0B8010C2E02C0759567950A94E2F725
:1009B0006170F70181917F010E943E032196C4304E
:1009C000D10579F7C601DF91CF911F910F91FF906B
:1009D000EF90DF90CF900C94AA04CF92DF92EF9229
:1009E000FF920F931F93CF93DF93EC01F62E642FAA
:1009F0008C810E943E038D818F3F19F060E00E9440
:100A00003E030F2D10E08F8584FF25C06E0187E027
:100A1000C80ED11CF12CE12CB8010E2C02C075952A
:100A200067950A94E2F76170F60181916F010E9467
:100A30003E03FFEFEF1AFF0A88E0E816F10461F7C2
:100A4000CE01DF91CF911F910F91FF90EF90DF903A
:100A5000CF900C94AA04B80184E0759567958A95A7
:100A6000E1F7CE010E94C0046F2DCE01DF91CF913E
:100A70001F910F91FF90EF90DF90CF900C94C004E6
:100A800040E0682F8EEE94E00C94ED049091010507
:100A9000691710F06FEF690FE62FF0E0E251FB4F9E
:100AA0009489890F80680C94400581E00E9440057C
:100AB0008BE39FE10197F1F70895CF93DF938230A5
:100AC00029F49091FD0498609093FD0480930105B2
:100AD0001092020580E48093030580E18093040571
:100AE00080E58093050561E08091F2040E946C032B
:100AF0008091F3048F3F19F061E00E946C0361E084
:100B00008091F4040E946C03CEEED4E09E012E5E30
:100B100034408091FD0484FD0BC084E090E0219678
:100B20002817390744F461E08E810E946C03EECFF0
:100B300088E090E0F4CF8BE39DE00197F1F760E06F
:100B40008091F2040E943E0360E08091F4040E94D0
:100B50003E038091F3048F3F19F060E00E943E0352
:100B60008091FD0484FD34C063E08EEE94E00E9429
:100B7000C004CBE4D6E4CE010197F1F763E08EEE3A
:100B800094E00E94C0042197F1F763E08EEE94E0B8
:100B90000E94C00483E592E00197F1F762E08EEED7
:100BA00094E00E94C0048091FD0480620E94400590
:100BB00084E08093FE048CE00E9440050E9455056D
:100BC00082E08093FF0486E0DF91CF910C94400592
:100BD00080620E9440058BE496E40197F1F78091D2
:100BE000FD0480620E94400583E592E00197F1F7E1
:100BF0008091FD0480620E944005D5CF41E00E94B3
:100C0000ED0481E090E008956115710579F0FB0134
:100C100001900020E9F73197AF01461B570BDC012B
:100C2000ED91FC910280F381E02D199490E080E039
:100C30000895CF93DF93EC0161E080E00E944605C8
:100C400064E372E08EEE94E00E94040661E080E0CE
:100C50000E944605CE010197982F990F890F61E0F8
:100C6000880F0E94460560E08EEE94E0DF91CF9100
:100C70000C94FE052091B9033091BA03293E33400C
:100C8000D4F081309105B9F42091A203211113C051
:100C900082E090E00E94190681E08093A2030E9406
:100CA00011046093B4037093B5038093B6039093DB
:100CB000B70382E090E02091B9033091BA03293E56
:100CC0003340D4F082309105B9F42091A203211170
:100CD00013C083E090E00E94190681E08093A20394
:100CE0000E9411046093B4037093B5038093B6031C
:100CF0009093B70383E090E02091B9033091BA0359
:100D000022333105D4F483309105B9F42091A20344
:100D1000211113C082E090E00E94190681E08093C7
:100D2000A2030E9411046093B4037093B5038093EF
:100D3000B6039093B70382E090E02091B90330911D
:100D4000BA0322333105D4F482309105B9F42091ED
:100D5000A203211113C081E090E00E94190681E0F6
:100D60008093A2030E9411046093B4037093B503AF
:100D70008093B6039093B70381E090E008958F923B
:100D80009F92AF92BF920F931F93CF93DF93CDB7F4
:100D9000DEB7A1970FB6F894DEBF0FBECDBF19A284
:100DA000423008F44AE08E010F5D1F4F842E912CD3
:100DB000B12CA12CA50194010E94680DE62FB90168
:100DC000CA01EA3044F5E05DD801EE938D01232B92
:100DD000242B252B79F790E080E0109769F0FD0136
:100DE00001900020E9F73197AF014A1B5B0BBD0171
:100DF00081EC93E00E947101A1960FB6F894DEBFDA
:100E00000FBECDBFDF91CF911F910F91BF90AF90DB
:100E10009F908F900895E95CD7CFCF92DF92EF92A9
:100E2000FF92CF93DF936C01990FEE08FF08F7FE56
:100E300019C06DE281EC93E00E941002EC0166277C
:100E40007727CB016C197D098E099F094AE00E9422
:100E5000BF068C0F9D1FDF91CF91FF90EF90DF9029
:100E6000CF9008954AE0C701B601DF91CF91FF907E
:100E7000EF90DF90CF900C94BF060F931F93CF930A
:100E8000DF93EC0188819981009759F02A813B8199
:100E90002617370730F081E0DF91CF911F910F9136
:100EA00008958B016F5F7F4F0E94B70E009759F036
:100EB000998388831B830A832C813D81232B59F7D7
:100EC000FC011082E8CF80E0E7CFCF93DF93EC0105
:100ED00088819981009711F00E942E0E1982188244
:100EE0001D821C821B821A82DF91CF9108950F937D
:100EF0001F93CF93DF93EC010C811D810E5F1F4F79
:100F0000B8010E943D07882391F0288139818C81A6
:100F10009D8162E472E0820F931F0E94A10F1D83E6
:100F20000C83CE01DF91CF911F910F910895CE01D7
:100F30000E946507F6CFEF92FF920F931F93CF9316
:100F4000DF93EC01FB01E080F180E114F10411F189
:100F50000481158101151105A9F08C819D81080F6F
:100F6000191FB801CE010E943D07882399F02881FE
:100F700039818C819D81B701820F931F0E94A10F3F
:100F80001D830C83CE01DF91CF911F910F91FF90B4
:100F9000EF900895CE010E946507F4CFEF92FF9283
:100FA0000F931F93CF93DF93EC017B018A01BA016A
:100FB0000E943D0781110BC0CE010E946507CE0142
:100FC000DF91CF911F910F91FF90EF9008951D83B6
:100FD0000C83B701888199810E94A10FF0CFFB019A
:100FE000DC0111961C921E9213961C921E9212976F
:100FF00015961C921E9214978617970749F06081E8
:1010000071816115710521F0448155810C94CE07E1
:101010000895FC01118210821382128215821482BB
:10102000FB0101900020E9F73197AF01461B570BF8
:101030000C94CE07DF92EF92FF920F931F93CF9302
:10104000DF938C017B016EE773E00E940908D701F2
:101050001496CD91DC91209719F1C430D10510F090
:10106000C4E0D0E0D701ED91FC911197EC0FFD1F8A
:10107000D08010826D917C9161157105D1F0FB01DA
:1010800001900020E9F73197AF01461B570BC801CB
:101090000E94CE07F70180819181C80FD91FD882A5
:1010A000C801DF91CF911F910F91FF90EF90DF90DA
:1010B0000895C8010E946507EDCFFC0180819181F0
:1010C000009711F00C942E0E08951F920F920FB6F8
:1010D0000F9211240BB60F922F933F934F935F9370
:1010E0006F937F938F939F93AF93BF93EF93FF93F0
:1010F00081EC93E00E94EE01FF91EF91BF91AF91DF
:101100009F918F917F916F915F914F913F912F911F
:101110000F900BBE0F900FBE0F901F9018951F924F
:101120000F920FB60F9211240BB60F922F938F933D
:101130009F93EF93FF93E091D103F091D2038081CD
:10114000E091D703F091D80382FD1DC0908180917A
:10115000DA038F5F8F732091DB03821741F0E091F8
:10116000DA03F0E0EF53FC4F958F8093DA03FF91A1
:10117000EF919F918F912F910F900BBE0F900FBE0B
:101180000F901F9018958081F2CF1F920F920FB68B
:101190000F9211242F933F938F939F93AF93BF93FD
:1011A0008091A4039091A503A091A603B091A703F9
:1011B0003091A30323E0230F2D3758F50196A11D8D
:1011C000B11D2093A3038093A4039093A503A09340
:1011D000A603B093A7038091A8039091A903A091BF
:1011E000AA03B091AB030196A11DB11D8093A80382
:1011F0009093A903A093AA03B093AB03BF91AF91BF
:101200009F918F913F912F910F900FBE0F901F9044
:10121000189526E8230F0296A11DB11DD2CFCF93BA
:10122000DF938EE594E00E945D08CAE9D4E026973A
:10123000CE010E945D0884E0C436D807C1F780EA79
:1012400094E00E945D088AE994E00E945D08CEEE79
:10125000D4E02697CE010E945D0884E0C63AD80704
:10126000C1F7DF91CF910895E1ECF3E01382128290
:1012700088EE93E0A0E0B0E084839583A683B783F3
:101280008AE192E09183808385EC90E09587848762
:1012900084EC90E09787868780EC90E0918B808B40
:1012A00081EC90E0938B828B82EC90E0958B848B29
:1012B00086EC90E0978B868B118E128E138E148E97
:1012C000EEEEF4E0138212828CE292E0918380834E
:1012D0008DE184838FEF85838BE1868389E187832A
:1012E00087E1808781E1818780E182871386148688
:1012F00015861686178681E00E945D0565E472E01A
:1013000086EA94E00E9409086AE472E08CEA94E0BC
:101310000E94090867E572E082EB94E00E940908E8
:101320006BEA72E088EB94E00E9409086BE672E0D9
:101330008EEB94E00E9409086EE773E084EC94E081
:101340000E94090862E772E08AEC94E00E940908B2
:1013500069E772E080ED94E00E94090860E872E0BD
:1013600086ED94E00E9409086AE872E08CED94E052
:101370000E94090861E972E082EE94E00E94090887
:101380006EE773E088EE94E00E94090869E972E074
:101390008AE994E00E9409086FE972E080EA94E02B
:1013A0000E94090866EA72E084E694E00E94090857
:1013B0006EEA72E08AE694E00E9409086EE773E044
:1013C00080E794E00E9409086EEB72E086E794E003
:1013D0000E9409086AED72E08CE794E00E94090817
:1013E00067EF72E082E894E00E9409086EE073E023
:1013F00088E894E00E94090860E373E08EE894E0D6
:101400000E9409086EE773E084E994E00E940908ED
:101410006EE773E08EE594E00C940908CF93DF93B8
:10142000CDB7DEB768970FB6F894DEBF0FBECDBF5D
:10143000789484B5826084BD84B5816084BD85B5AF
:10144000826085BD85B5816085BD80916E008160BB
:1014500080936E0010928100809181008260809361
:101460008100809181008160809381008091800063
:101470008160809380008091B10084608093B1008E
:101480008091B00081608093B00080919100826073
:101490008093910080919100816080939100809170
:1014A00090008160809390008091A1008260809381
:1014B000A1008091A10081608093A1008091A00093
:1014C00081608093A000809121018260809321013E
:1014D00080912101816080932101809120018160B0
:1014E0008093200180917A00846080937A008091BB
:1014F0007A00826080937A0080917A008160809384
:101500007A0080917A00806880937A001092C100FE
:1015100082E00E945D0562E08CE20E946C0380E440
:101520000E94400500E012E0F80161918F018EEE0B
:1015300094E00E94FE05F2E008301F07A9F788E456
:101540000E9440050CEA13E034EBE32E33E0F32E67
:10155000F80161918F018EEE94E00E94FE05E01685
:10156000F106B1F760E080E00E94460562EB74E0AE
:10157000CE0101960E941A086CEA74E0CE0107962B
:101580000E941A0866EA74E0CE0143960E941A0887
:10159000BE016D5E7F4FCE010D960E94EF07CE011A
:1015A0000D960E947707BE01695F7F4F0E949B07DF
:1015B0000E947707BE016F5F7F4F0E949B070E94CA
:1015C0009E01CE010D960E945D08CE0143960E94B9
:1015D0005D08CE0107960E945D08CE0101960E942B
:1015E0005D0861E080E00E94460560E08EEE94E0D8
:1015F0000E94FE05E091D103F091D20382E0808346
:10160000E091CD03F091CE031082E091CF03F091F1
:10161000D0038FEC80831092D903E091D503F09131
:10162000D60386E08083E091D303F091D4038081D8
:1016300080618083E091D303F091D403808188603E
:101640008083E091D303F091D4038081806880830C
:10165000E091D303F091D40380818F7D808361E09A
:1016600086E30E946C0361E087E30E946C0361E003
:1016700086E20E946C0361E08CE30E946C0361E0EF
:101680008DE30E946C0361E088E30E946C0360E0DC
:1016900086E20E943E0360E088E30E943E03CC2481
:1016A000C39486E0D82E92E1B92EEE24E394F12C77
:1016B0008091C00381118FC082E40E949D039093AA
:1016C000BA038093B9038091080290910902813096
:1016D000910509F02AC180910E0290910F020E949B
:1016E0003A0690930F0280930E028CE20E9415033B
:1016F0009093BC038093BB036BE473E081EC93E0B5
:101700000E9404068091B9039091BA030E940D07CC
:101710006FE473E081EC93E00E9404068091BB03C8
:101720009091BC030E940D0765E573E081EC93E0A6
:101730000E94040680910E0290910F020E940D07F4
:1017400069E673E081EC93E00E9404068091BE0399
:101750009091BF030E940D076DE773E081EC93E069
:101760000E9404068091080290910902813091053F
:1017700009F0EBC08091BB039091BC03892B49F524
:101780000E94550561E080E00E9446056FE773E026
:101790008EEE94E00E94040620910E0230910F021A
:1017A00021503109D29EC001D39E900D11248A553B
:1017B0009B4F0E949E0180910E0290910F02049710
:1017C00030F065E873E08EEE94E00E9404060E941B
:1017D00075040E948C0480910E0290910F02039771
:1017E00009F08AC08091C003882309F485C08091E4
:1017F0000C0290910D02019609F07EC08091BD030C
:10180000811125C00E94550560E080E00E944605D8
:101810006AE974E0CE0101960E94EF07CE010196BD
:101820000E94770760EA74E00E949B070E949E0175
:10183000CE0101960E945D0861E080E00E944605AD
:1018400060E08EEE94E00E94FE05C092BD0382E44B
:101850000E949D039093BA038093B90380910A027A
:1018600090910B020E943A0690930B0280930A0219
:101870008CE20E9415039093BC038093BB03892BD9
:1018800099F50E94550561E080E00E9446056AE8EE
:1018900073E08EEE94E00E94040620910A023091DB
:1018A0000B0221503109D29EC001D39E900D11240C
:1018B00086569B4F0E949E0160910A0270910B0216
:1018C0006150710970930D0260930C026A567C4F4F
:1018D00081EC93E00E94040668EE73E080E090E003
:1018E0000E94DF030E9455050E948C0480910C0227
:1018F00090910D020E940D0760ED77E080E090E08E
:101900000E94DF0380910E0290910F02019751F423
:101910008091BE039091BF038130910509F0D2C040
:101920000E9421040E947D02C3CE029759F4809147
:10193000BE039091BF030E943A069093BF03809329
:10194000BE03D3CE0E945505D0CE029709F0AFC09A
:101950008091B803882309F470C00E94110400919B
:10196000B4031091B5032091B6033091B703601B07
:10197000710B820B930B613D77408105910508F453
:101980005CC00E94550560E080E00E9446058091A1
:101990000E0290910F02B89E8001B99E100D112485
:1019A000B8016E547B4FCE0101960E941A08B8010F
:1019B00064557B4FCE0107960E941A08B8016A55FC
:1019C0007B4FCE0143960E941A08BE016D5E7F4F89
:1019D000CE010D960E94EF07CE010D960E9477076B
:1019E000BE01695F7F4F0E949B070E947707BE017F
:1019F0006F5F7F4F0E949B070E949E01CE010D9654
:101A00000E945D08CE0143960E945D08CE010796B4
:101A10000E945D08CE0101960E945D0861E080E0B1
:101A20000E94460560E08EEE94E00E94FE05109252
:101A3000B803F092BF03E092BE038091BB03909184
:101A4000BC03892B09F0C5CE61E080E00E94460509
:101A500064E372E08EEE94E00E94040661E080E0B0
:101A60000E9446056FE773E08EEE94E00E94040644
:101A70002091BE033091BF0321503109D29EC00195
:101A8000D39E900D112440910E0250910F02B49EEE
:101A90009001B59E300D1124820F931F8A559B4FE4
:101AA0000E949E018091BE039091BF0388CE0E9448
:101AB0005505C092C00360ED77E080E090E00E94A1
:101AC000DF0387CE029709F02DCF0E9421042ACF91
:101AD000A1E21A2EAA1BBB1BFD010DC0AA1FBB1F32
:101AE000EE1FFF1FA217B307E407F50720F0A21BA4
:101AF000B30BE40BF50B661F771F881F991F1A9411
:101B000069F760957095809590959B01AC01BD013A
:101B1000CF010895EE0FFF1F881F8BBF0790F6912E
:101B2000E02D19940F931F93CF93DF93823091058B
:101B300010F482E090E0E0910805F091090530E0B2
:101B400020E0B0E0A0E0309799F42115310509F4C8
:101B50004AC0281B390B24303105D8F58A819B8176
:101B60006115710589F1FB0193838283FE0111C028
:101B7000408151810281138148175907E0F04817CD
:101B8000590799F4109761F012960C9312971396D7
:101B90001C933296CF01DF91CF911F910F91089541
:101BA0000093080510930905F4CF2115310551F074
:101BB0004217530738F0A901DB019A01BD01DF018B
:101BC000F801C1CFEF01F9CF909309058093080583
:101BD000CDCFFE01E20FF31F819391932250310983
:101BE00039832883D7CF2091060530910705232B11
:101BF00041F4209112023091130230930705209393
:101C0000060520911002309111022115310541F491
:101C10002DB73EB74091140250911502241B350B8D
:101C2000E0910605F0910705E217F307A0F42E1BDB
:101C30003F0B2817390778F0AC014E5F5F4F241730
:101C4000350748F04E0F5F1F509307054093060578
:101C5000819391939FCFF0E0E0E09CCFCF93DF930F
:101C60000097E9F0FC01329713821282A0910805D7
:101C7000B0910905ED0130E020E01097A1F420813A
:101C80003181820F931F2091060530910705281797
:101C9000390709F061C0F0930705E0930605DF916D
:101CA000CF910895EA01CE17DF07E8F54A815B81FD
:101CB0009E0141155105B1F7E901FB83EA83499182
:101CC0005991C40FD51FEC17FD0761F480819181F4
:101CD0000296840F951FE9019983888382819381FD
:101CE0009B838A83F0E0E0E012968D919C9113979C
:101CF0000097B9F52D913C911197CD010296820F75
:101D0000931F20910605309107052817390739F6EA
:101D1000309751F51092090510920805B093070508
:101D2000A0930605BCCFD383C28340815181840F29
:101D3000951FC817D90761F44E5F5F4F888199815D
:101D4000480F591F518340838A819B8193838283EB
:101D50002115310509F0B0CFF0930905E09308058E
:101D60009ECFFD01DC01C0CF13821282D7CF4F92EC
:101D70005F926F927F928F929F92AF92BF92CF921B
:101D8000DF92EF92FF920F931F93CF93DF938C011B
:101D9000009799F4CB01DF91CF911F910F91FF90A4
:101DA000EF90DF90CF90BF90AF909F908F907F90FB
:101DB0006F905F904F900C94920DFC01E60FF71F0F
:101DC0009C0122503109E217F30708F4AEC0D90193
:101DD000CD91DC911197C617D70720F1C530D105F9
:101DE00078F0CE0104978617970750F0C61BD70BE3
:101DF0002297C193D1936D937C93CF010E942E0EB5
:101E0000C801DF91CF911F910F91FF90EF90DF906C
:101E1000CF90BF90AF909F908F907F906F905F908A
:101E20004F9008955B01AC1ABD0A4C018C0E9D1EAB
:101E3000A0910805B0910905512C412CF12CE12C01
:101E4000109731F580910605909107058815990541
:101E500009F05CC04616570608F058C08091100281
:101E600090911102009741F48DB79EB740911402F2
:101E700050911502841B950BE817F90708F055C01F
:101E8000F0930705E0930605F90171836083B8CFED
:101E90008D919C91119712966C90129713967C904D
:101EA0001397A815B90559F56C0142E0C40ED11C71
:101EB000CA14DB0420F1AC014A195B09DA0112965D
:101EC000159780F06282738251834083D9016D93AC
:101ED0007C93E114F10471F0D7011396FC93EE9317
:101EE00012978ECF22968C0F9D1FF90191838083CC
:101EF000F301EFCFF0930905E093080581CF481671
:101F0000590608F42C017D01D3019ACFCB010E9420
:101F1000920D7C01009749F0AE01B8010E94980F24
:101F2000C8010E942E0E87016BCF10E000E068CF41
:101F3000FB01DC0102C001900D9241505040D8F7E6
:101F40000895FB01DC0101900D920020E1F7089556
:101F500011E0CDE3D1E000E006C0802FFE010E9439
:101F60008A0D2196011DCE33D10780E00807A9F71D
:041F7000F894FFCF13
:101F7400040E15040404000001000100FFFF010029
:101F840000000A0580000000000010027101A70192
:101F94005D02D801B601CA0100000000FE0571010E
:101FA4001E041D042020202020202020202020206A
:101FB40020202020005465737400486F6D6F6C6F8F
:101FC400676174696F6E0050726F6772616D6D65E1
:101FD400207072696E636970616C003336306465B9
:101FE40067004665726DC3A9004F7576657274000B
:101FF40044796E616D69717565007175616C6966AE
:102004000066696E616C6573004A41554E45005621
:10201400494F4C455400546573745F314D00546509
:1020240073745F3336305F64656772657300686F1D
:102034006D6F6C6F676174696F6E5F7374617469DF
:102044007175655F6665726D6500686F6D6F6C6F45
:10205400676174696F6E5F73746174697175655FCC
:102064006F757665727400686F6D6F6C6F676174FD
:10207400696F6E5F64796E616D6971756500707208
:102084006F6772616D6D655F7072696E63697061AF
:102094006C5F7175616C696669636174696F6E0008
:1020A40070726F6772616D6D655F7072696E63697E
:1020B40070616C5F66696E616C6500583A2000203F
:1020C400205A3A20002020202020204D656E75459E
:1020D40074616765313A2020002020202020204DA3
:1020E400656E754574616765323A2020000A004FB9
:1020F4004B203A20004661696C00434F554C4555CE
:1021040052203D202000434F554C455552203D2040
:022114000000C9
:00000001FF
