:100000000C943E010C946F010C946F010C946F01E1
:100010000C946F010C946F010C946F010C946F01A0
:100020000C946F010C946F010C946F010C946F0190
:100030000C946F010C946F010C946F010C946F0180
:100040000C946F010C946F010C946F010C946F0170
:100050000C946F010C946F010C946F010C94C50803
:100060000C946F010C948F080C9465080C946F012C
:100070000C946F010C946F010C946F010C946F0140
:100080000C946F010C946F010C946F010C946F0130
:100090000C946F010C946F010C946F010C946F0120
:1000A0000C946F010C946F010C946F010C946F0110
:1000B0000C946F010C946F010C946F010C946F0100
:1000C0000C946F010C946F010C946F010C946F01F0
:1000D0000C946F010C946F010C946F010C946F01E0
:1000E0000C946F010C94CA010C94DE020C941E0453
:1000F0000C941D040C94E1020C9411030C945D0209
:100100000C940D030C94EB020C94A7010C940703C0
:100110000C94DA020C94FF020C94D8010C94F502B2
:100120000C94F1020C9410020C94E7020C94CC0293
:100130000C94B6010C94FE050C94F9020C94030384
:100140000C940C030C940F090C94D6020C94D2025C
:100150000C9471010C943409000021002400270044
:100160002A002D00300033000101000004010701C6
:100170000A0100002200250028002B002E0031007B
:10018000340002010000050108010B0100002000FD
:100190002300260029002C002F003200000100005F
:1001A00003010601090105050505070508080808FA
:1001B000020202020A0A08080404040401010101FF
:1001C00001010101030303030303030304070707FA
:1001D0000C0C0C0C0C0C0C0C02020202060606069F
:1001E000060606060B0B0B0B0B0B0B0B010210206C
:1001F000200808102040102040800201020108045D
:1002000002010102040810204080804020100804F0
:100210000201800402018040201008040201080449
:10022000020101020408102040800102040810208D
:10023000408000000A0B02090C0D0E0807030401A0
:1002400000000000000000000000000000000000AE
:10025000000000000000000000000000000012117B
:10026000100000000000000000000000000000007E
:10027000000000000000000034090F0911241FBE17
:10028000CFEFD1E2DEBFCDBF00E00CBF25E0A2EA98
:10029000B3E001C01D92AA30B207E1F713E0A0E07D
:1002A000B2E0E4E7FFE100E00BBF02C007900D926F
:1002B000A23AB107D9F711E0CDE3D1E000E006C0E2
:1002C00021970109802FFE010E948A0DCC33D107AE
:1002D00080E00807A9F70E940E0A0C94A80F0C945E
:1002E0000000AF92BF92CF92DF92EF92FF920F93F6
:1002F0001F93CF93DF936C017B018B01040F151FBC
:10030000EB015E01AE18BF08C017D10759F0699123
:10031000D601ED91FC910190F081E02DC601199577
:10032000892B79F7C501DF91CF911F910F91FF9034
:10033000EF90DF90CF90BF90AF900895FC01448183
:100340005581608171818EEE94E00C947101FC0105
:10035000538D448D252F30E0842F90E0821B930B2A
:10036000541710F0CF96089501970895FC01918DD0
:10037000828D981761F0A28DAE0FBF2FB11D5D96D3
:100380008C91928D9F5F9F73928F90E008958FEF75
:100390009FEF0895FC01918D828D981731F0828D29
:1003A000E80FF11D858D90E008958FEF9FEF089580
:1003B000FC01918D228D892F90E0805C9F4F821BE4
:1003C00091098F739927089581EC93E00E94D801D9
:1003D00021E0892B09F420E0822F0895FC01A48DEF
:1003E000A80FB92FB11DA35ABF4F2C91848D90E057
:1003F00001968F739927848FA689B7892C93A0893A
:10040000B1898C91837080648C93938D848D9813C3
:1004100006C00288F389E02D80818F7D8083089556
:10042000EF92FF920F931F93CF93DF93EC0181E044
:10043000888F9B8D8C8D98131AC0E889F9898081EB
:1004400085FF15C09FB7F894EE89FF896083E8891E
:10045000F98980818370806480839FBF81E090E010
:10046000DF91CF911F910F91FF90EF900895F62E9D
:100470000B8D10E00F5F1F4F0F731127E02E8C8D37
:100480008E110CC00FB607FCFACFE889F98980817C
:1004900085FFF5CFCE010E94EE01F1CFEB8DEC0F81
:1004A000FD2FF11DE35AFF4FF0829FB7F8940B8F99
:1004B000EA89FB8980818062CFCFCF93DF93EC0103
:1004C000888D8823B9F0AA89BB89E889F9898C913C
:1004D00085FD03C0808186FD0DC00FB607FCF7CFF8
:1004E0008C9185FFF2CF808185FFEDCFCE010E94F8
:1004F000EE01E9CFDF91CF91089580E090E0892B64
:1005000029F00E94E40181110E94000080E090E047
:10051000892B49F080E090E0892B29F00E940000AF
:1005200081110E94000080E090E0892B49F080E07A
:1005300090E0892B29F00E94000081110E940000A8
:1005400080E090E0892B49F080E090E0892B29F051
:100550000E94000081110C940000089581508231A6
:1005600008F05AC0E82FF0E08827E654FD4F8F4F7F
:100570000C948A0DDA02DE02CC02D202D6020C03FF
:10058000E102E702EB02F102F502F902FF020303C6
:100590000C0307030D031103809180008F77809374
:1005A00080000895809180008F7DF9CF8091800038
:1005B000877FF5CF84B58F7784BD089584B58F7D0F
:1005C000FBCF8091B0008F778093B0000895809129
:1005D000B0008F7DF9CF809190008F77809390004D
:1005E0000895809190008F7DF9CF80919000877F52
:1005F000F5CF8091A0008F778093A000089580911F
:10060000A0008F7DF9CF8091A000877FF5CF8091EA
:1006100020018F77809320010895809120018F7DA4
:10062000F9CF80912001877FF5CFCF93DF93282FDB
:1006300030E0F901EE5CFD4F8491F901E451FE4F89
:10064000D491F901EA55FE4FC491CC23A1F0811158
:100650000E94AE02EC2FF0E0EE0FFF1FE457FE4FBA
:10066000A591B491EC91ED2381E090E009F480E054
:10067000DF91CF91089580E090E0FACF1F93CF9360
:10068000DF93282F30E0F901EE5CFD4F8491F901F2
:10069000E451FE4FD491F901EA55FE4FC491CC23A9
:1006A000A9F0162F81110E94AE02EC2FF0E0EE0FA0
:1006B000FF1FEE58FE4FA591B4918FB7F894EC91BF
:1006C000111108C0D095DE23DC938FBFDF91CF914D
:1006D0001F910895DE2BF8CFCF93DF9390E0FC01BC
:1006E000E451FE4F24918A559E4FFC01849188234A
:1006F000D1F090E0880F991FFC01E85AFE4FA591B8
:10070000B491FC01EE58FE4FC591D491623071F462
:100710009FB7F8943C91822F809583238C93E88136
:100720002E2B28839FBFDF91CF9108958FB7F89428
:10073000EC912E2B2C938FBFF6CF863308F0865387
:1007400020917B00982F9870277F922B90937B00AD
:100750008770806480937C0080917A0080648093AD
:100760007A0080917A0086FDFCCF8091780090918C
:10077000790008953FB7F8948091A8039091A90358
:10078000A091AA03B091AB0326B5A89B05C02F3F4B
:1007900019F00196A11DB11D3FBFBA2FA92F982FA7
:1007A0008827BC01CD01620F711D811D911D42E0A2
:1007B000660F771F881F991F4A95D1F708958F926A
:1007C0009F92AF92BF92CF92DF92EF92FF924B0136
:1007D0005C010E94BA036B017C010E94BA036C1990
:1007E0007D098E099F09683E734081059105A8F334
:1007F00021E0821A9108A108B10888EEC80E83E0B2
:10080000D81EE11CF11C81149104A104B10429F744
:10081000FF90EF90DF90CF90BF90AF909F908F9020
:1008200008952FB7F8946091A4037091A503809167
:10083000A6039091A7032FBF0895089590E080E04C
:100840000895CF93DF9361E087E30E943E0360E069
:100850008DE30E943E03C1E8DCE061E086E30E9494
:100860003E0361E08CE30E943E0361E070E080E0C3
:1008700090E00E94DF0360E086E30E943E0360E0B8
:100880008CE30E943E03219741F768E873E180E022
:1008900090E00E94DF0360E087E30E943E0361E096
:1008A0008DE30E943E03C1E8DCE061E086E30E9444
:1008B0003E0361E08CE30E943E0361E070E080E073
:1008C00090E00E94DF0360E086E30E943E0360E068
:1008D0008CE30E943E03219741F76FEF77EE86E7A6
:1008E00098E4DF91CF910C94DF030E941104609390
:1008F000B4037093B5038093B6039093B7038091CC
:1009000008029091090201969093090280930802CF
:1009100081E08093B80308950F931F930E94110400
:100920002091A203222399F00091B4031091B50302
:100930002091B6033091B703601B710B820B930BB0
:10094000653F71408105910510F01092A2031F913F
:100950000F910895CF93DF93EC0160E08E810E94A8
:100960003E0361E08E810E943E0360E08E810E9422
:100970003E038BE891E00197F1F7DF91CF91089565
:10098000CF92DF92EF92FF920F931F93CF93DF935B
:100990006C017C0187E0E80EF11CD0E0C0E0062F7E
:1009A00010E0B8010C2E02C0759567950A94E2F725
:1009B0006170F70181917F010E943E032196C4304E
:1009C000D10579F7C601DF91CF911F910F91FF906B
:1009D000EF90DF90CF900C94AA04CF92DF92EF9229
:1009E000FF920F931F93CF93DF93EC01F62E642FAA
:1009F0008C810E943E038D818F3F19F060E00E9440
:100A00003E030F2D10E08F8584FF25C06E0187E027
:100A1000C80ED11CF12CE12CB8010E2C02C075952A
:100A200067950A94E2F76170F60181916F010E9467
:100A30003E03FFEFEF1AFF0A88E0E816F10461F7C2
:100A4000CE01DF91CF911F910F91FF90EF90DF903A
:100A5000CF900C94AA04B80184E0759567958A95A7
:100A6000E1F7CE010E94C0046F2DCE01DF91CF913E
:100A70001F910F91FF90EF90DF90CF900C94C004E6
:100A800040E0682F8EEE94E00C94ED049091010507
:100A9000691710F06FEF690FE62FF0E0E251FB4F9E
:100AA0009489890F80680C94400581E00E9440057C
:100AB0008BE39FE10197F1F70895CF93DF938230A5
:100AC00029F49091FD0498609093FD0480930105B2
:100AD0001092020580E48093030580E18093040571
:100AE00080E58093050561E08091F2040E946C032B
:100AF0008091F3048F3F19F061E00E946C0361E084
:100B00008091F4040E946C03CEEED4E09E012E5E30
:100B100034408091FD0484FD0BC084E090E0219678
:100B20002817390744F461E08E810E946C03EECFF0
:100B300088E090E0F4CF8BE39DE00197F1F760E06F
:100B40008091F2040E943E0360E08091F4040E94D0
:100B50003E038091F3048F3F19F060E00E943E0352
:100B60008091FD0484FD34C063E08EEE94E00E9429
:100B7000C004CBE4D6E4CE010197F1F763E08EEE3A
:100B800094E00E94C0042197F1F763E08EEE94E0B8
:100B90000E94C00483E592E00197F1F762E08EEED7
:100BA00094E00E94C0048091FD0480620E94400590
:100BB00084E08093FE048CE00E9440050E9455056D
:100BC00082E08093FF0486E0DF91CF910C94400592
:100BD00080620E9440058BE496E40197F1F78091D2
:100BE000FD0480620E94400583E592E00197F1F7E1
:100BF0008091FD0480620E944005D5CF41E00E94B3
:100C0000ED0481E090E008956115710579F0FB0134
:100C100001900020E9F73197AF01461B570BDC012B
:100C2000ED91FC910280F381E02D199490E080E039
:100C30000895CF93DF93EC0161E080E00E944605C8
:100C400064E372E08EEE94E00E94040661E080E0CE
:100C50000E944605CE010197982F990F890F61E0F8
:100C6000880F0E94460560E08EEE94E0DF91CF9100
:100C70000C94FE052091B9033091BA03293E33400C
:100C8000D4F081309105B9F42091A203211113C051
:100C900082E090E00E94190681E08093A2030E9406
:100CA00011046093B4037093B5038093B6039093DB
:100CB000B70382E090E02091B9033091BA03293E56
:100CC0003340D4F082309105B9F42091A203211170
:100CD00013C083E090E00E94190681E08093A20394
:100CE0000E9411046093B4037093B5038093B6031C
:100CF0009093B70383E090E02091B9033091BA0359
:100D000022333105D4F483309105B9F42091A20344
:100D1000211113C082E090E00E94190681E08093C7
:100D2000A2030E9411046093B4037093B5038093EF
:100D3000B6039093B70382E090E02091B90330911D
:100D4000BA0322333105D4F482309105B9F42091ED
:100D5000A203211113C081E090E00E94190681E0F6
:100D60008093A2030E9411046093B4037093B503AF
:100D70008093B6039093B70381E090E008958F923B
:100D80009F92AF92BF920F931F93CF93DF93CDB7F4
:100D9000DEB7A1970FB6F894DEBF0FBECDBF19A284
:100DA000423008F44AE08E010F5D1F4F842E912CD3
:100DB000B12CA12CA50194010E94680DE62FB90168
:100DC000CA01EA3044F5E05DD801EE938D01232B92
:100DD000242B252B79F790E080E0109769F0FD0136
:100DE00001900020E9F73197AF014A1B5B0BBD0171
:100DF00081EC93E00E947101A1960FB6F894DEBFDA
:100E00000FBECDBFDF91CF911F910F91BF90AF90DB
:100E10009F908F900895E95CD7CFCF92DF92EF92A9
:100E2000FF92CF93DF936C01990FEE08FF08F7FE56
:100E300019C06DE281EC93E00E941002EC0166277C
:100E40007727CB016C197D098E099F094AE00E9422
:100E5000BF068C0F9D1FDF91CF91FF90EF90DF9029
:100E6000CF9008954AE0C701B601DF91CF91FF907E
:100E7000EF90DF90CF900C94BF060F931F93CF930A
:100E8000DF93EC0188819981009759F02A813B8199
:100E90002617370730F081E0DF91CF911F910F9136
:100EA00008958B016F5F7F4F0E94B70E009759F036
:100EB000998388831B830A832C813D81232B59F7D7
:100EC000FC011082E8CF80E0E7CFCF93DF93EC0105
:100ED00088819981009711F00E942E0E1982188244
:100EE0001D821C821B821A82DF91CF9108950F937D
:100EF0001F93CF93DF93EC010C811D810E5F1F4F79
:100F0000B8010E943D07882391F0288139818C81A6
:100F10009D8162E472E0820F931F0E94A10F1D83E6
:100F20000C83CE01DF91CF911F910F910895CE01D7
:100F30000E946507F6CFEF92FF920F931F93CF9316
:100F4000DF93EC01FB01E080F180E114F10411F189
:100F50000481158101151105A9F08C819D81080F6F
:100F6000191FB801CE010E943D07882399F02881FE
:100F700039818C819D81B701820F931F0E94A10F3F
:100F80001D830C83CE01DF91CF911F910F91FF90B4
:100F9000EF900895CE010E946507F4CFEF92FF9283
:100FA0000F931F93CF93DF93EC017B018A01BA016A
:100FB0000E943D0781110BC0CE010E946507CE0142
:100FC000DF91CF911F910F91FF90EF9008951D83B6
:100FD0000C83B701888199810E94A10FF0CFFB019A
:100FE000DC0111961C921E9213961C921E9212976F
:100FF00015961C921E9214978617970749F06081E8
:1010000071816115710521F0448155810C94CE07E1
:101010000895FC01118210821382128215821482BB
:10102000FB0101900020E9F73197AF01461B570BF8
:101030000C94CE07DF92EF92FF920F931F93CF9302
:10104000DF938C017B016EE773E00E940908D701F2
:101050001496CD91DC91209719F1C430D10510F090
:10106000C4E0D0E0D701ED91FC911197EC0FFD1F8A
:10107000D08010826D917C9161157105D1F0FB01DA
:1010800001900020E9F73197AF01461B570BC801CB
:101090000E94CE07F70180819181C80FD91FD882A5
:1010A000C801DF91CF911F910F91FF90EF90DF90DA
:1010B0000895C8010E946507EDCFFC0180819181F0
:1010C000009711F00C942E0E08951F920F920FB6F8
:1010D0000F9211240BB60F922F933F934F935F9370
:1010E0006F937F938F939F93AF93BF93EF93FF93F0
:1010F00081EC93E00E94EE01FF91EF91BF91AF91DF
:101100009F918F917F916F915F914F913F912F911F
:101110000F900BBE0F900FBE0F901F9018951F924F
:101120000F920FB60F9211240BB60F922F938F933D
:101130009F93EF93FF93E091D103F091D2038081CD
:10114000E091D703F091D80382FD1DC0908180917A
:10115000DA038F5F8F732091DB03821741F0E091F8
:10116000DA03F0E0EF53FC4F958F8093DA03FF91A1
:10117000EF919F918F912F910F900BBE0F900FBE0B
:101180000F901F9018958081F2CF1F920F920FB68B
:101190000F9211242F933F938F939F93AF93BF93FD
:1011A0008091A4039091A503A091A603B091A703F9
:1011B0003091A30323E0230F2D3758F50196A11D8D
:1011C000B11D2093A3038093A4039093A503A09340
:1011D000A603B093A7038091A8039091A903A091BF
:1011E000AA03B091AB030196A11DB11D8093A80382
:1011F0009093A903A093AA03B093AB03BF91AF91BF
:101200009F918F913F912F910F900FBE0F901F9044
:10121000189526E8230F0296A11DB11DD2CFCF93BA
:10122000DF938EE594E00E945D08CAE9D4E026973A
:10123000CE010E945D0884E0C436D807C1F780EA79
:1012400094E00E945D088AE994E00E945D08CEEE79
:10125000D4E02697CE010E945D0884E0C63AD80704
:10126000C1F7DF91CF910895E1ECF3E01382128290
:1012700088EE93E0A0E0B0E084839583A683B783F3
:101280008AE192E09183808385EC90E09587848762
:1012900084EC90E09787868780EC90E0918B808B40
:1012A00081EC90E0938B828B82EC90E0958B848B29
:1012B00086EC90E0978B868B118E128E138E148E97
:1012C000EEEEF4E0138212828CE292E0918380834E
:1012D0008DE184838FEF85838BE1868389E187832A
:1012E00087E1808781E1818780E182871386148688
:1012F00015861686178681E00E945D0565E472E01A
:1013000086EA94E00E9409086AE472E08CEA94E0BC
:101310000E94090867E572E082EB94E00E940908E8
:101320006BEA72E088EB94E00E9409086BE672E0D9
:101330008EEB94E00E9409086EE773E084EC94E081
:101340000E94090862E772E08AEC94E00E940908B2
:1013500069E772E080ED94E00E94090860E872E0BD
:1013600086ED94E00E9409086AE872E08CED94E052
:101370000E94090861E972E082EE94E00E94090887
:101380006EE773E088EE94E00E94090869E972E074
:101390008AE994E00E9409086FE972E080EA94E02B
:1013A0000E94090866EA72E084E694E00E94090857
:1013B0006EEA72E08AE694E00E9409086EE773E044
:1013C00080E794E00E9409086EEB72E086E794E003
:1013D0000E9409086AED72E08CE794E00E94090817
:1013E00067EF72E082E894E00E9409086EE073E023
:1013F00088E894E00E94090860E373E08EE894E0D6
:101400000E9409086EE773E084E994E00E940908ED
:101410006EE773E08EE594E00C940908CF93DF93B8
:10142000CDB7DEB768970FB6F894DEBF0FBECDBF5D
:10143000789484B5826084BD84B5816084BD85B5AF
:10144000826085BD85B5816085BD80916E008160BB
:1014500080936E0010928100809181008260809361
:101460008100809181008160809381008091800063
:101470008160809380008091B10084608093B1008E
:101480008091B00081608093B00080919100826073
:101490008093910080919100816080939100809170
:1014A00090008160809390008091A1008260809381
:1014B000A1008091A10081608093A1008091A00093
:1014C00081608093A000809121018260809321013E
:1014D00080912101816080932101809120018160B0
:1014E0008093200180917A00846080937A008091BB
:1014F0007A00826080937A0080917A008160809384
:101500007A0080917A00806880937A001092C100FE
:1015100082E00E945D0562E08CE20E946C0380E440
:101520000E94400500E012E0F80161918F018EEE0B
:1015300094E00E94FE05F2E008301F07A9F788E456
:101540000E9440050CEA13E034EBE32E33E0F32E67
:10155000F80161918F018EEE94E00E94FE05E01685
:10156000F106B1F760E080E00E94460562EB74E0AE
:10157000CE0101960E941A086CEA74E0CE0107962B
:101580000E941A0866EA74E0CE0143960E941A0887
:10159000BE016D5E7F4FCE010D960E94EF07CE011A
:1015A0000D960E947707BE01695F7F4F0E949B07DF
:1015B0000E947707BE016F5F7F4F0E949B070E94CA
:1015C0009E01CE010D960E945D08CE0143960E94B9
:1015D0005D08CE0107960E945D08CE0101960E942B
:1015E0005D0861E080E00E94460560E08EEE94E0D8
:1015F0000E94FE05E091D103F091D20382E0808346
:10160000E091CD03F091CE031082E091CF03F091F1
:10161000D0038FEC80831092D903E091D503F09131
:10162000D60386E08083E091D303F091D4038081D8
:1016300080618083E091D303F091D403808188603E
:101640008083E091D303F091D4038081806880830C
:10165000E091D303F091D40380818F7D808361E09A
:1016600086E30E946C0361E087E30E946C0361E003
:1016700086E20E946C0361E08CE30E946C0361E0EF
:101680008DE30E946C0361E088E30E946C0360E0DC
:1016900086E20E943E0360E088E30E943E03CC2481
:1016A000C39486E0D82E92E1B92EEE24E394F12C77
:1016B0008091C00381118FC082E40E949D039093AA
:1016C000BA038093B9038091080290910902813096
:1016D000910509F02AC180910E0290910F020E949B
:1016E0003A0690930F0280930E028CE20E9415033B
:1016F0009093BC038093BB036BE473E081EC93E0B5
:101700000E9404068091B9039091BA030E940D07CC
:101710006FE473E081EC93E00E9404068091BB03C8
:101720009091BC030E940D0765E573E081EC93E0A6
:101730000E94040680910E0290910F020E940D07F4
:1017400069E673E081EC93E00E9404068091BE0399
:101750009091BF030E940D076DE773E081EC93E069
:101760000E9404068091080290910902813091053F
:1017700009F0EBC08091BB039091BC03892B49F524
:101780000E94550561E080E00E9446056FE773E026
:101790008EEE94E00E94040620910E0230910F021A
:1017A00021503109D29EC001D39E900D11248A553B
:1017B0009B4F0E949E0180910E0290910F02049710
:1017C00030F065E873E08EEE94E00E9404060E941B
:1017D00075040E948C0480910E0290910F02039771
:1017E00009F08AC08091C003882309F485C08091E4
:1017F0000C0290910D02019609F07EC08091BD030C
:10180000811125C00E94550560E080E00E944605D8
:101810006AE974E0CE0101960E94EF07CE010196BD
:101820000E94770760EA74E00E949B070E949E0175
:10183000CE0101960E945D0861E080E00E944605AD
:1018400060E08EEE94E00E94FE05C092BD0382E44B
:101850000E949D039093BA038093B90380910A027A
:1018600090910B020E943A0690930B0280930A0219
:101870008CE20E9415039093BC038093BB03892BD9
:1018800099F50E94550561E080E00E9446056AE8EE
:1018900073E08EEE94E00E94040620910A023091DB
:1018A0000B0221503109D29EC001D39E900D11240C
:1018B00086569B4F0E949E0160910A0270910B0216
:1018C0006150710970930D0260930C026A567C4F4F
:1018D00081EC93E00E94040668EE73E080E090E003
:1018E0000E94DF030E9455050E948C0480910C0227
:1018F00090910D020E940D0760ED77E080E090E08E
:101900000E94DF0380910E0290910F02019751F423
:101910008091BE039091BF038130910509F0D2C040
:101920000E9421040E947D02C3CE029759F4809147
:10193000BE039091BF030E943A069093BF03809329
:10194000BE03D3CE0E945505D0CE029709F0AFC09A
:101950008091B803882309F470C00E94110400919B
:10196000B4031091B5032091B6033091B703601B07
:10197000710B820B930B613D77408105910508F453
:101980005CC00E94550560E080E00E9446058091A1
:101990000E0290910F02B89E8001B99E100D112485
:1019A000B8016E547B4FCE0101960E941A08B8010F
:1019B00064557B4FCE0107960E941A08B8016A55FC
:1019C0007B4FCE0143960E941A08BE016D5E7F4F89
:1019D000CE010D960E94EF07CE010D960E9477076B
:1019E000BE01695F7F4F0E949B070E947707BE017F
:1019F0006F5F7F4F0E949B070E949E01CE010D9654
:101A00000E945D08CE0143960E945D08CE010796B4
:101A10000E945D08CE0101960E945D0861E080E0B1
:101A20000E94460560E08EEE94E00E94FE05109252
:101A3000B803F092BF03E092BE038091BB03909184
:101A4000BC03892B09F0C5CE61E080E00E94460509
:101A500064E372E08EEE94E00E94040661E080E0B0
:101A60000E9446056FE773E08EEE94E00E94040644
:101A70002091BE033091BF0321503109D29EC00195
:101A8000D39E900D112440910E0250910F02B49EEE
:101A90009001B59E300D1124820F931F8A559B4FE4
:101AA0000E949E018091BE039091BF0388CE0E9448
:101AB0005505C092C00360ED77E080E090E00E94A1
:101AC000DF0387CE029709F02DCF0E9421042ACF91
:101AD000A1E21A2EAA1BBB1BFD010DC0AA1FBB1F32
:101AE000EE1FFF1FA217B307E407F50720F0A21BA4
:101AF000B30BE40BF50B661F771F881F991F1A9411
:101B000069F760957095809590959B01AC01BD013A
:101B1000CF010895EE0FFF1F881F8BBF0790F6912E
:101B2000E02D19940F931F93CF93DF93823091058B
:101B300010F482E090E0E0910805F091090530E0B2
:101B400020E0B0E0A0E0309799F42115310509F4C8
:101B50004AC0281B390B24303105D8F58A819B8176
:101B60006115710589F1FB0193838283FE0111C028
:101B7000408151810281138148175907E0F04817CD
:101B8000590799F4109761F012960C9312971396D7
:101B90001C933296CF01DF91CF911F910F91089541
:101BA0000093080510930905F4CF2115310551F074
:101BB0004217530738F0A901DB019A01BD01DF018B
:101BC000F801C1CFEF01F9CF909309058093080583
:101BD000CDCFFE01E20FF31F819391932250310983
:101BE00039832883D7CF2091060530910705232B11
:101BF00041F4209112023091130230930705209393
:101C0000060520911002309111022115310541F491
:101C10002DB73EB74091140250911502241B350B8D
:101C2000E0910605F0910705E217F307A0F42E1BDB
:101C30003F0B2817390778F0AC014E5F5F4F241730
:101C4000350748F04E0F5F1F509307054093060578
:101C5000819391939FCFF0E0E0E09CCFCF93DF930F
:101C60000097E9F0FC01329713821282A0910805D7
:101C7000B0910905ED0130E020E01097A1F420813A
:101C80003181820F931F2091060530910705281797
:101C9000390709F061C0F0930705E0930605DF916D
:101CA000CF910895EA01CE17DF07E8F54A815B81FD
:101CB0009E0141155105B1F7E901FB83EA83499182
:101CC0005991C40FD51FEC17FD0761F480819181F4
:101CD0000296840F951FE9019983888382819381FD
:101CE0009B838A83F0E0E0E012968D919C9113979C
:101CF0000097B9F52D913C911197CD010296820F75
:101D0000931F20910605309107052817390739F6EA
:101D1000309751F51092090510920805B093070508
:101D2000A0930605BCCFD383C28340815181840F29
:101D3000951FC817D90761F44E5F5F4F888199815D
:101D4000480F591F518340838A819B8193838283EB
:101D50002115310509F0B0CFF0930905E09308058E
:101D60009ECFFD01DC01C0CF13821282D7CF4F92EC
:101D70005F926F927F928F929F92AF92BF92CF921B
:101D8000DF92EF92FF920F931F93CF93DF938C011B
:101D9000009799F4CB01DF91CF911F910F91FF90A4
:101DA000EF90DF90CF90BF90AF909F908F907F90FB
:101DB0006F905F904F900C94920DFC01E60FF71F0F
:101DC0009C0122503109E217F30708F4AEC0D90193
:101DD000CD91DC911197C617D70720F1C530D105F9
:101DE00078F0CE0104978617970750F0C61BD70BE3
:101DF0002297C193D1936D937C93CF010E942E0EB5
:101E0000C801DF91CF911F910F91FF90EF90DF906C
:101E1000CF90BF90AF909F908F907F906F905F908A
:101E20004F9008955B01AC1ABD0A4C018C0E9D1EAB
:101E3000A0910805B0910905512C412CF12CE12C01
:101E4000109731F580910605909107058815990541
:101E500009F05CC04616570608F058C08091100281
:101E600090911102009741F48DB79EB740911402F2
:101E700050911502841B950BE817F90708F055C01F
:101E8000F0930705E0930605F90171836083B8CFED
:101E90008D919C91119712966C90129713967C904D
:101EA0001397A815B90559F56C0142E0C40ED11C71
:101EB000CA14DB0420F1AC014A195B09DA0112965D
:101EC000159780F06282738251834083D9016D93AC
:101ED0007C93E114F10471F0D7011396FC93EE9317
:101EE00012978ECF22968C0F9D1FF90191838083CC
:101EF000F301EFCFF0930905E093080581CF481671
:101F0000590608F42C017D01D3019ACFCB010E9420
:101F1000920D7C01009749F0AE01B8010E94980F24
:101F2000C8010E942E0E87016BCF10E000E068CF41
:101F3000FB01DC0102C001900D9241505040D8F7E6
:101F40000895FB01DC0101900D920020E1F7089556
:101F500011E0CDE3D1E000E006C0802FFE010E9439
:101F60008A0D2196011DCE33D10780E00807A9F71D
:041F7000F894FFCF13
:101F7400040E15040404000001000100FFFF010029
:101F840000000A0580000000000010027101A70192
:101F94005D02D801B601CA0100000000FE0571010E
:101FA4001E041D042020202020202020202020206A
:101FB40020202020005465737400486F6D6F6C6F8F
:101FC400676174696F6E0050726F6772616D6D65E1
:101FD400207072696E636970616C003336306465B9
:101FE40067004665726DC3A9004F7576657274000B
:101FF40044796E616D69717565007175616C6966AE
:102004000066696E616C6573004A41554E45005621
:10201400494F4C455400546573745F314D00546509
:1020240073745F3336305F64656772657300686F1D
:102034006D6F6C6F676174696F6E5F7374617469DF
:102044007175655F6665726D6500686F6D6F6C6F45
:10205400676174696F6E5F73746174697175655FCC
:102064006F757665727400686F6D6F6C6F676174FD
:10207400696F6E5F64796E616D6971756500707208
:102084006F6772616D6D655F7072696E63697061AF
:102094006C5F7175616C696669636174696F6E0008
:1020A40070726F6772616D6D655F7072696E63697E
:1020B40070616C5F66696E616C6500583A2000203F
:1020C400205A3A20002020202020204D656E75459E
:1020D40074616765313A2020002020202020204DA3
:1020E400656E754574616765323A2020000A004FB9
:1020F4004B203A20004661696C00434F554C4555CE
:1021040052203D202000434F554C455552203D2040
:022114000000C9
:020000023000CC
:10E000000D9489F10D94B2F10D94B2F10D94B2F129
:10E010000D94B2F10D94B2F10D94B2F10D94B2F1F0
:10E020000D94B2F10D94B2F10D94B2F10D94B2F1E0
:10E030000D94B2F10D94B2F10D94B2F10D94B2F1D0
:10E040000D94B2F10D94B2F10D94B2F10D94B2F1C0
:10E050000D94B2F10D94B2F10D94B2F10D94B2F1B0
:10E060000D94B2F10D94B2F10D94B2F10D94B2F1A0
:10E070000D94B2F10D94B2F10D94B2F10D94B2F190
:10E080000D94B2F10D94B2F10D94B2F10D94B2F180
:10E090000D94B2F10D94B2F10D94B2F10D94B2F170
:10E0A0000D94B2F10D94B2F10D94B2F10D94B2F160
:10E0B0000D94B2F10D94B2F10D94B2F10D94B2F150
:10E0C0000D94B2F10D94B2F10D94B2F10D94B2F140
:10E0D0000D94B2F10D94B2F10D94B2F10D94B2F130
:10E0E0000D94B2F141546D656761323536300041AF
:10E0F000726475696E6F206578706C6F72657220DE
:10E1000073746B3530305632206279204D4C530099
:10E11000426F6F746C6F616465723E004875683F52
:10E1200000436F6D70696C6564206F6E203D200048
:10E130004350552054797065202020203D20005FF9
:10E140005F4156525F415243485F5F3D2000415658
:10E1500052204C696243205665723D20004743437C
:10E160002056657273696F6E203D20004350552024
:10E1700049442020202020203D20004C6F7720663D
:10E18000757365202020203D20004869676820665F
:10E190007573652020203D200045787420667573D6
:10E1A00065202020203D20004C6F636B2066757336
:10E1B000652020203D20004D617220203720323024
:10E1C000313300312E362E3800342E332E350056A2
:10E1D00023202020414444522020206F7020636F70
:10E1E00064652020202020696E73747275637469E1
:10E1F0006F6E2061646472202020496E74657272B3
:10E20000757074006E6F20766563746F7200726A49
:10E210006D702020006A6D70200057686174207056
:10E220006F72743A00506F7274206E6F7420737541
:10E2300070706F72746564004D7573742062652030
:10E2400061206C6574746572002000577269747483
:10E25000696E672045450052656164696E672045B7
:10E26000450045452065727220636E743D00504F35
:10E27000525400303D5A65726F2061646472003FF1
:10E280003D43505520737461747300403D454550C3
:10E29000524F4D207465737400423D426C696E6B41
:10E2A000204C454400453D44756D70204545505215
:10E2B0004F4D00463D44756D7020464C415348001B
:10E2C000483D48656C70004C3D4C69737420492F83
:10E2D0004F20506F72747300513D51756974005234
:10E2E0003D44756D702052414D00563D73686F7707
:10E2F00020696E7465727275707420566563746FF0
:10E30000727300593D506F727420626C696E6B00BD
:10E310002A0011241FBECFEFD1E2DEBFCDBF01E046
:10E320000CBF12E0A0E0B2E0EEE1FDEF03E00BBFB6
:10E3300002C007900D92A030B107D9F712E0A0E01B
:10E34000B2E001C01D92AE30B107E1F70F9460F367
:10E350000D948DFE01E20EBF0FEF0DBF11241FBE05
:10E360000D9460F30D9400F020E030E040ED57E0B4
:10E3700005C0FA013197F1F72F5F3F4F2817390792
:10E38000C0F308959C01260F311DC901A0E0B0E043
:10E390002F5F3F4FABBFFC018791882361F08093D3
:10E3A000C6008091C00086FFFCCF8091C0008064D1
:10E3B0008093C000EACF08958DE08093C6008091DD
:10E3C000C00086FFFCCF8091C00080648093C000B5
:10E3D0008AE08093C6008091C00086FFFCCF8091C8
:10E3E000C00080648093C00008950F94C2F10F9420
:10E3F000DCF10895FC019081992359F09093C600B7
:10E400008091C00086FFFCCF8091C0008064809323
:10E41000C0003196992379F70895282F982F929567
:10E420009F70892F805D8A3308F0895F8093C600D2
:10E430008091C00086FFFCCF8091C00080648093F3
:10E44000C000822F8F70982F905D9A3308F0995FEB
:10E450009093C6008091C00086FFFCCF8091C000E1
:10E4600080648093C00008959C01FB01853691056E
:10E470001CF46330710594F0C90164E670E00F94F8
:10E480002EFE605D7F4F6093C6008091C00086FFC6
:10E49000FCCF8091C00080648093C0002B30310598
:10E4A00014F43297B4F0C90164E670E00F942EFEC4
:10E4B0006AE070E00F942EFE605D7F4F6093C600AF
:10E4C0008091C00086FFFCCF8091C0008064809363
:10E4D000C000C9016AE070E00F942EFEC0968093E0
:10E4E000C6008091C00086FFFCCF8091C000806490
:10E4F0008093C00008951F93182F8EE692EE60E07F
:10E500000F94C2F11093C6008091C00086FFFCCF2B
:10E510008091C00080648093C0000F94DCF11F9153
:10E5200008952F923F924F925F926F927F928F92B7
:10E530009F92AF92BF92CF92DF92EF92FF920F9392
:10E540001F93DF93CF93CDB7DEB762970FB6F894E2
:10E55000DEBF0FBECDBF382E622ECA01DB015C01CB
:10E560006D01772420E2222E2E010894411C511CBB
:10E570008BC081E0A81680E0B80681E0C80680E084
:10E58000D80628F0C601AA27BB270F940DF2BB2797
:10E59000AD2D9C2D8B2D0F940DF28A2D0F940DF225
:10E5A0002092C6008091C00086FFFCCF8091C00001
:10E5B00080648093C0009DE29093C6008091C0006B
:10E5C00086FFFCCF8091C00080648093C0002092C1
:10E5D000C6008091C00086FFFCCF8091C00080649F
:10E5E0008093C00019828601750188249924A1E0D6
:10E5F0003A1651F03A1620F0B2E03B1661F409C029
:10E600000BBFF701779007C0C7010F9477FE782EF4
:10E6100002C0F7017080872D0F940DF22092C60082
:10E620008091C00086FFFCCF8091C0008064809301
:10E63000C000872D8052F401EF70F0708F3520F408
:10E64000E40DF51D708204C0E40DF51D8EE280839B
:10E650000894E11CF11C011D111D0894811C911CE2
:10E6600090E18916910409F0C2CF80E190E0A0E02A
:10E67000B0E0A80EB91ECA1EDB1E198AC2010F9493
:10E68000FAF10F94DCF16A94662009F072CF629679
:10E690000FB6F894DEBF0FBECDBFCF91DF911F91B3
:10E6A0000F91FF90EF90DF90CF90BF90AF909F9031
:10E6B0008F907F906F905F904F903F902F90089534
:10E6C0002F923F924F925F926F927F928F929F9282
:10E6D000AF92BF92CF92DF92EF92FF920F931F9370
:10E6E000DF93CF93CDB7DEB7CD53D1400FB6F894BB
:10E6F000DEBF0FBECDBF01E20EBF0FEF0DBF94B75F
:10E70000F894A89514BE80916000886180936000A1
:10E7100010926000789493FF05C0E0910002F091A0
:10E7200001021995279A2F9A8091C00082608093E8
:10E73000C00080E18093C40088E18093C1000000A4
:10E74000EE24FF24870144E0A42EB12CCC24DD2448
:10E7500024C0C5010197F1F70894E11CF11C011DCB
:10E76000111D21E2E2162EE4F20620E0020720E06D
:10E77000120718F031E0C32ED12CC801B70127ECE5
:10E780003BE140E050E00F9441FE611571058105C9
:10E79000910519F485B1805885B98091C00087FD35
:10E7A00003C0C114D104A9F2A6014F5F5F4FC25E3E
:10E7B000DE4F59834883CE51D140C25EDE4F8881FF
:10E7C0009981CE51D140019711F00D9410FEC05D9A
:10E7D000DE4F19821882C053D14060E0C15DDE4F28
:10E7E0001882CF52D14088249924C35DDE4F19820C
:10E7F0001882CD52D140C05EDE4F188219821A8233
:10E800001B82C052D140CE5CDE4F188219821A8220
:10E810001B82C253D140EE24FF2487010BBFF701B6
:10E8200007911691C45CDE4F19830883CC53D14005
:10E830000D940BFEC25EDE4F28813981CE51D1404E
:10E840002130310509F52091C600C25EDE4F1982E4
:10E850001882CE51D14022C02F5F3F4F4F4F5F4FA4
:10E86000213082E138078AE7480780E0580780F0C6
:10E87000C45CDE4FE881F981CC53D140EF5FFF4F9C
:10E8800019F0EE27FF27099420E030E040E050E047
:10E890008091C00087FFE0CF2091C600C35DDE4FAE
:10E8A00048815981CD52D1404F5F5F4FC35DDE4FEC
:10E8B00059834883CD52D140213209F063C64A3092
:10E8C000510508F05FC60894811C911C53E0851621
:10E8D000910409F059C600E010E018C081E280936D
:10E8E000C6008091C00086FFFCCF8091C00080648C
:10E8F0008093C0002F5F3F4F2931310579F70F9486
:10E90000DCF10F5F1F4F0530110519F020E030E0FA
:10E91000E5CF10920A0210920B0210920C02109294
:10E920000D02109206021092070210920802109235
:10E930000902109202021092030210920402109235
:10E9400005028FEE90EE60E00F94F5F180E191EE1C
:10E9500060E00F94C2F18091C00087FFFCCF9091DE
:10E96000C600903608F09F759032B8F09093C600BC
:10E970008091C00086FFFCCF8091C00080648093AE
:10E98000C000A0E2A093C6008091C00086FFFCCF2B
:10E990008091C00080648093C000983409F4D7C18E
:10E9A0009934B8F4923409F459C1933458F490333B
:10E9B00019F1903308F4E3C59F33A1F1903409F0C5
:10E9C000DEC5BDC0953409F470C1963409F0D7C5D1
:10E9D00098C1923509F42BC2933538F49C3409F46C
:10E9E000F5C1913509F0CBC518C2963509F445C279
:10E9F000993509F0C4C567C483E792EE62E00F94CD
:10EA0000F5F110920602109207021092080210927D
:10EA1000090210920A0210920B0210920C0210923C
:10EA20000D0213C18FE792EE62E00F94F5F18FEEC5
:10EA300090EE60E00F94F5F181E291EE60E00F94CA
:10EA4000C2F187EB91EE60E00F94F5F180E391EE77
:10EA500060E00F94C2F184EE90EE60E00F94F5F167
:10EA60008FE391EE60E00F94C2F186E090E061E008
:10EA700070E00F9434F20F94DCF18DE591EE60E0DC
:10EA80000F94C2F189EC91EE60E00F94F5F18EE401
:10EA900091EE60E00F94C2F183EC91EE60E00F9490
:10EAA000F5F18CE691EE60E00F94C2F18EE10F94E7
:10EAB0000DF288E90F940DF281E00F940DF20F949E
:10EAC000DCF18BE791EE60E00F94C2F119E0E0E039
:10EAD000F0E010935700E4918E2F0F940DF20F94F5
:10EAE000DCF18AE891EE60E00F94C2F1E3E0F0E03F
:10EAF00010935700E4918E2F0F940DF20F94DCF1D8
:10EB000089E991EE60E00F94C2F1E2E0F0E0109349
:10EB10005700E4918E2F0F940DF20F94DCF188EAE8
:10EB200091EE60E00F94C2F1E1E0F0E01093570045
:10EB30001491812F0F940DF20F94DCF107CF8BE825
:10EB400092EE62E00F94F5F18BE492EE60E00F94A8
:10EB5000F5F10F94DCF100E010E019C0C8016F2D51
:10EB60000F947FFEFF2031F489E492EE60E00F9471
:10EB7000C2F10BC0F092C6008091C00086FFFCCFAE
:10EB80008091C00080648093C0000F5F1F4FC80158
:10EB900081519F41A0E0B0E0ABBFFC01F790BAE229
:10EBA000FB1621F0E2E000301E07C1F60F94DCF105
:10EBB0000F94DCF187E592EE60E00F94F5F10F948D
:10EBC000DCF1CC24DD2400E010E01EC0C8010F946D
:10EBD00077FEF82E882331F489E492EE60E00F94FA
:10EBE000C2F10BC08093C6008091C00086FFFCCFAD
:10EBF0008091C00080648093C000FE1419F00894D6
:10EC0000C11CD11C0F5F1F4FC80181519F41A0E063
:10EC1000B0E0ABBFFC01E790FAE2EF1621F022E092
:10EC20000030120799F60F94DCF10F94DCF182E6C4
:10EC300092EE60E00F94C2F1C60161E070E00F94C3
:10EC400034F20F94DCF10F94DCF110920202109276
:10EC50000302109204021092050278CE89E992EE26
:10EC600062E00F94F5F1279A2F9A16C02F9880E052
:10EC700090E0E0EDF7E03197F1F7019684369105E9
:10EC8000C1F72F9A80E090E0E0EDF7E03197F1F7DF
:10EC9000019684369105C1F78091C00087FFE6CFC9
:10ECA0008091C00087FFFCCF64C485EA92EE62E0E9
:10ECB0000F94F5F140910202509103026091040219
:10ECC0007091050281E020E10F9491F2809102029F
:10ECD00090910302A0910402B091050280509F4FD1
:10ECE000AF4FBF4F8093020290930302A0930402A0
:10ECF000B093050280509041A040B04008F426CE69
:10ED0000A4CF83EB92EE62E00F94F5F140910602FE
:10ED100050910702609108027091090280E020E1A1
:10ED20000F9491F28091060290910702A09108023F
:10ED3000B091090280509F4FAF4FBF4F80930602A2
:10ED400090930702A0930802B0930902FFCD80ECD4
:10ED500092EE62E00F94F5F183E792EE60E00F949B
:10ED6000F5F18FE792EE60E00F94F5F18BE892EE0B
:10ED700060E00F94F5F189E992EE60E00F94F5F10F
:10ED800085EA92EE60E00F94F5F183EB92EE60E09D
:10ED90000F94F5F180EC92EE60E00F94F5F187ECC2
:10EDA00092EE60E00F94F5F188ED92EE60E00F9442
:10EDB000F5F18FED92EE60E00F94F5F18AEE92EEB0
:10EDC00060E00F94F5F183E093EEBDCD87EC92EE19
:10EDD00062E00F94F5F181E40F947BF282E40F94EA
:10EDE0007BF283E40F947BF284E40F947BF285E45E
:10EDF0000F947BF286E40F947BF287E40F947BF20E
:10EE000088E40F947BF28AE40F947BF28BE40F94F6
:10EE10007BF28CE40F947BF299CD88ED92EE62E068
:10EE20000F94F5F1772473948824992409C48FED05
:10EE300092EE62E00F94F5F140910A0250910B02BC
:10EE400060910C0270910D0282E020E10F9491F22A
:10EE500080910A0290910B02A0910C02B0910D02D8
:10EE600080509F4FAF4FBF4F80930A0290930B0289
:10EE7000A0930C02B0930D0269CD8AEE92EE62E08F
:10EE80000F94F5F184EE90EE60E00F94F5F18FECC5
:10EE900091EE60E00F94F5F1662477244301CC5D98
:10EEA000DE4F19821882C452D140D401C301B695F5
:10EEB000A79597958795CA5DDE4F88839983AA8326
:10EEC000BB83C652D140CC5DDE4FA881B981C4520C
:10EED000D1401196CC5DDE4FB983A883C452D14096
:10EEE000CD0162E070E00F9434F2B0E2B093C6005E
:10EEF0008091C00086FFFCCF8091C0008064809329
:10EF0000C000EDE2E093C6008091C00086FFFCCF18
:10EF10008091C00080648093C000F0E2F093C6004E
:10EF20008091C00086FFFCCF8091C00080648093F8
:10EF3000C000CA5DDE4FE880F9800A811B81C6529D
:10EF4000D140BB27A12F902F8F2D0F940DF2CA5DBA
:10EF5000DE4F8881C652D1400F940DF2B0E2FB2EF5
:10EF6000F092C6008091C00086FFFCCF8091C00067
:10EF700080648093C0000DE30093C6008091C000C0
:10EF800086FFFCCF8091C00080648093C00010E2B7
:10EF90001093C6008091C00086FFFCCF8091C00016
:10EFA00080648093C0008BBEF3012791C65DDE4F65
:10EFB0002883CA52D140A22EBB24CC24DD2408943D
:10EFC000611C711C811C911C8BBEF3018791282E42
:10EFD0003324442455240894611C711C811C911C09
:10EFE0008BBEF3013791C55DDE4F3883CB52D140E4
:10EFF0000894611C711C811C911C8BBEF30147910C
:10F00000C45DDE4F4883CC52D140ADEFEA2EAFEF66
:10F01000FA2EAFEF0A2FAFEF1A2F6E0C7F1C801E57
:10F02000911E142D032DF22CEE24EA0CFB1C0C1D5A
:10F030001D1D0F940DF220E22093C6008091C000A8
:10F0400086FFFCCF8091C00080648093C000C65DC5
:10F05000DE4F8881CA52D1400F940DF230E23093D6
:10F06000C6008091C00086FFFCCF8091C000806404
:10F070008093C000C45DDE4F8881CC52D1400F9494
:10F080000DF240E24093C6008091C00086FFFCCFA5
:10F090008091C00080648093C000C55DDE4F888190
:10F0A000CB52D1400F940DF250E25093C6008091A4
:10F0B000C00086FFFCCF8091C00080648093C000B8
:10F0C0008FEFE8168FEFF80680E0080780E018075A
:10F0D00031F484E092EE60E00F94C2F1DFC0D80119
:10F0E000C7018070907CA070B0708050904CA040A0
:10F0F000B040D1F52FEF3FE340E050E0E222F322B1
:10F1000004231523CA5DDE4FA880B980CA80DB8046
:10F11000C652D140AE0CBF1CC01ED11EAA0CBB1CD7
:10F12000CC1CDD1C8EE092EE60E00F94C2F1BB2798
:10F13000A12F902F8F2D0F940DF28E2D0F940DF285
:10F1400030E23093C6008091C00086FFFCCF8091F2
:10F15000C00080648093C0004EE34093C60080915D
:10F16000C00086FFFCCF87C08EE09EEFA0E0B0E03D
:10F17000E822F9220A231B239CE0E91694E9F90608
:10F1800090E0090790E0190709F088C0C45DDE4FE0
:10F19000A881CC52D140EA2EFF2400E010E0102FCD
:10F1A0000F2DFE2CEE24C55DDE4FB881CB52D14031
:10F1B000EB0EF11C011D111DD601C501817090706F
:10F1C000A070B070DC0199278827E80EF91E0A1F8D
:10F1D0001B1F20EF30E040E050E0A222B322C42207
:10F1E000D52241E1AA0CBB1CCC1CDD1C4A95D1F7F1
:10F1F000EA0CFB1C0C1D1D1D81E090E0A0E0B0E0BE
:10F20000282239224A225B2235E1220C331C441C7D
:10F21000551C3A95D1F7E20CF31C041D151D57013E
:10F220006801AA0CBB1CCC1CDD1C85E192EE60E0E1
:10F230000F94C2F1C801AA27BB270F940DF2BB2778
:10F24000A12F902F8F2D0F940DF28E2D0F940DF274
:10F2500090E29093C6008091C00086FFFCCF809121
:10F26000C00080648093C000AEE3A093C60080918C
:10F27000C00086FFFCCF8091C00080648093C000F6
:10F28000C601AA27BB270F940DF2BB27AD2D9C2DDD
:10F290008B2D0F940DF28A2D0F940DF20F94DCF14B
:10F2A000CC5DDE4FE881F981C452D140F99709F471
:10F2B0004DCBF4E0EF2EF12C012D112D6E0C7F1CA7
:10F2C000801E911EF2CD83E093EE62E00F94F5F183
:10F2D0008AE192EE60E00F94C2F18091C00087FF56
:10F2E000FCCF1091C6001F751093C6008091C0001E
:10F2F00086FFFCCF8091C00080648093C0000F9493
:10F30000DCF1812F81548A3108F036C1163409F4BA
:10F3100095C0173490F4133409F44EC0143430F40B
:10F320001134F1F0123409F01DC130C0143409F465
:10F3300059C0153409F016C16BC01A3409F4C4C0A1
:10F340001B3438F4173409F48FC0183409F00AC19B
:10F35000A1C01B3409F4D2C01C3409F003C1E8C0B9
:10F360008FEF81B90DC082B1809582B980E090E0C5
:10F37000E0EDF7E03197F1F70196883C9105C1F790
:10F380008091C00087FFEFCF12B8EFC08FEF84B934
:10F390000DC085B1809585B980E090E0E0EDF7E0A3
:10F3A0003197F1F70196883C9105C1F78091C00033
:10F3B00087FFEFCF15B8D9C08FEF87B90DC088B1DF
:10F3C000809588B980E090E0E0EDF7E03197F1F7C3
:10F3D0000196883C9105C1F78091C00087FFEFCF6F
:10F3E00018B8C3C08FEF8AB90DC08BB180958BB9A7
:10F3F00080E090E0E0EDF7E03197F1F70196883C8E
:10F400009105C1F78091C00087FFEFCF1BB8ADC059
:10F410008FEF8DB90DC08EB180958EB980E090E0F0
:10F42000E0EDF7E03197F1F70196883C9105C1F7DF
:10F430008091C00087FFEFCF1EB897C08FEF80BBD1
:10F440000DC081B3809581BB80E090E0E0EDF7E0F6
:10F450003197F1F70196883C9105C1F78091C00082
:10F4600087FFEFCF11BA81C08FEF83BB0DC084B38C
:10F47000809584BB80E090E0E0EDF7E03197F1F714
:10F480000196883C9105C1F78091C00087FFEFCFBE
:10F4900014BA6BC08FEF809301010FC080910201FD
:10F4A00080958093020180E090E0E0EDF7E03197F5
:10F4B000F1F70196883C9105C1F78091C00087FF64
:10F4C000EDCF1092020151C08FEF809304010FC065
:10F4D0008091050180958093050180E090E0E0ED4A
:10F4E000F7E03197F1F70196883C9105C1F78091DB
:10F4F000C00087FFEDCF1092050137C08FEF8093DA
:10F5000007010FC08091080180958093080180E079
:10F5100090E0E0EDF7E03197F1F70196883C910536
:10F52000C1F78091C00087FFEDCF109208011DC088
:10F530008FEF80930A010FC080910B01809580931B
:10F540000B0180E090E0E0EDF7E03197F1F70196F4
:10F55000883C9105C1F78091C00087FFEDCF1092E4
:10F560000B0103C085E292EEEEC98091C00087FFD7
:10F57000FCCF8091C600EAC988E392EEE4C98CE131
:10F5800091EEE1C988249924933011F1943028F444
:10F59000913089F09230B8F408C0953061F195301F
:10F5A000F0F0963009F048C043C02B3109F042C951
:10F5B00091E06BE13FC96227C15DDE4F2883CF52E6
:10F5C000D14092E037C9B22FA0E0622793E032C960
:10F5D000822F90E0A82BB92B622794E02BC92E3004
:10F5E00009F039C3622795E0C05DDE4F19821882A9
:10F5F000C053D1401FC9E1E0F0E0EC0FFD1FC05D3A
:10F60000DE4F08811981C053D140E00FF11F2083E4
:10F610000F5F1F4FC05DDE4F19830883C053D14079
:10F6200062270A171B0709F005C9D80196E002C92D
:10F63000261709F010C303C0973009F0FBC87724E0
:10F640009981933109F412C19431C8F4963009F4C8
:10F65000D8C0973050F4923009F406C1933009F4C1
:10F660006DC0913009F059C253C0913109F477C08F
:10F67000923108F0BBC0903109F04FC2F5C098310B
:10F6800009F487C0993150F4953109F4EFC09531F0
:10F6900008F4C6C1963109F040C2C2C19A3109F4DA
:10F6A0006CC09A3108F491C09B3109F45BC09D3164
:10F6B00009F033C29D81903359F48F81882311F46E
:10F6C0009EE11CC0813011F091E018C098E916C08D
:10F6D000892F807591F0903539F4E0E0F0E089E011
:10F6E0008093570094910AC0983539F4E3E0F0E034
:10F6F00089E080935700949101C090E01A821B82A8
:10F700008D818C831D829E831F8227E030E009C299
:10F710001A8288E08B8381E48C8386E58D8382E581
:10F720008E8389E48F8383E5888780E589878FE5E9
:10F730008A8782E38B872BE030E0F3C18A818139AD
:10F7400041F0823941F0803911F48FE005C080E04A
:10F7500003C082E001C08AE01A828B8344C0772410
:10F76000739482C08D81882311F48EE12CC0813086
:10F7700011F081E028C088E926C01A82E1E0F0E0BB
:10F7800089E08093570084918B831C8224E030E0D1
:10F79000C8C18B81803589F48C81883039F4E2E0EE
:10F7A000F0E089E08093570084910DC0E0E0F0E044
:10F7B00089E080935700849106C0E3E0F0E089E09F
:10F7C0008093570084911A82DFCF8D81836C99E0FA
:10F7D000E1E0F0E0082E90935700E89507B600FCB2
:10F7E000FDCF1A821B8223E030E09BC180EC8A832C
:10F7F000CE5CDE4F188219821A821B82C253D1401E
:10F800008EC18A8190E0A0E0B0E0582F44273327D2
:10F8100022278B8190E0A0E0B0E0DC0199278827C7
:10F82000282B392B4A2B5B2B8D8190E0A0E0B0E098
:10F83000282B392B4A2B5B2B8C8190E0A0E0B0E089
:10F84000BA2FA92F982F8827282B392B4A2B5B2BCF
:10F85000220F331F441F551FC05EDE4F288339839C
:10F860004A835B83C052D1401A8259C13A81C95C34
:10F87000DE4F3883C753D140CA5CDE4F1882C6536F
:10F88000D1408B81C82EDD24CA5CDE4F488159816E
:10F89000C653D140C42AD52A933109F082C0CE5C28
:10F8A000DE4F88819981AA81BB81C253D1408050AB
:10F8B000904CA340B04030F583E0CE5CDE4FE88052
:10F8C000F9800A811B81C253D140F70100935B008C
:10F8D00080935700E89507B600FCFDCFCE5CDE4F65
:10F8E000088119812A813B81C253D14000501F4FAA
:10F8F0002F4F3F4FCE5CDE4F088319832A833B8313
:10F90000C253D140C05EDE4F488159816A817B81FC
:10F91000C052D140DE011B9631E08C9111962C91A2
:10F9200011971296C75CDE4F2883C953D140C85C3B
:10F93000DE4F1882C853D14090E0C85CDE4FE881AA
:10F94000F981C853D1408E2B9F2B0C01FA01609393
:10F950005B0030935700E89511244E5F5F4F6F4F67
:10F960007F4F0EEFE02E0FEFF02ECE0CDF1CC114F8
:10F97000D10499F685E0C05EDE4F088119812A81A5
:10F980003B81C052D140F80120935B008093570027
:10F99000E89507B600FCFDCF81E180935700E8951C
:10F9A00035C0C05EDE4F88819981AA81BB81C0527B
:10F9B000D140B695A795979587957C018601ABE0D8
:10F9C000AA2EB12CAC0EBD1E0BC0D5016D915D01F0
:10F9D000C7010F947FFE0894E11CF11C01501040F8
:10F9E0000115110591F7A60160E070E0440F551F65
:10F9F000661F771FC05EDE4FE880F9800A811B8199
:10FA0000C052D1404E0D5F1D601F711F1A82C05E33
:10FA1000DE4F488359836A837B83C052D1407FC0C5
:10FA2000FA80C55CDE4FF882CB53D140C65CDE4F16
:10FA30001882CA53D1408B81C82EDD24C65CDE4FAC
:10FA400008811981CA53D140C02AD12A1A828981DA
:10FA5000BE016D5F7F4F843121F59601C05EDE4FA0
:10FA6000E880F9800A811B81C052D1400BBFF701A9
:10FA700087919691DB018C9311969C936E5F7F4FDB
:10FA8000D801C7010296A11DB11DC05EDE4F88835B
:10FA90009983AA83BB83C052D14022503040F1F6F3
:10FAA00036C0C05EDE4F288139814A815B81C052F9
:10FAB000D1400894C108D108760100E010E0089414
:10FAC000C11CD11C0894E11CF11C011D111DE20E8A
:10FAD000F31E041F151F21BDBB27A52F942F832FB5
:10FAE00082BD2F5F3F4F4F4F5F4FF89A80B5DB01CC
:10FAF0008D93BD012E153F054007510761F7C05E8C
:10FB0000DE4F288339834A835B83C052D1409601FC
:10FB10002D5F3F4FFB01108204C080EC8A8322E0FE
:10FB200030E08BE18093C6008091C00086FFFCCF5F
:10FB30008091C00080648093C000C15DDE4FF88179
:10FB4000CF52D140F093C6008091C00086FFFCCF19
:10FB50008091C00080648093C000432F3093C60022
:10FB60008091C00086FFFCCF8091C00080648093AC
:10FB7000C000922F2093C6008091C00086FFFCCF6A
:10FB80008091C00080648093C0008EE08093C600A6
:10FB90008091C00086FFFCCF8091C000806480937C
:10FBA000C00065E1C15DDE4FE880CF52D1406E25D7
:10FBB00069276427FE01319610C090819093C6009A
:10FBC0008091C00086FFFCCF31968091C000806498
:10FBD0008093C0006927215030402115310569F715
:10FBE0006093C6008091C00086FFFCCF8091C0006A
:10FBF00080648093C00085B1805885B9772081F4F6
:10FC0000C15DDE4F0881CF52D1400F5FC15DDE4F35
:10FC10000883CF52D14090E0A0E0B0E00D941AF4F8
:10FC200027982F9880E090E020ED37E0F901319798
:10FC3000F1F7019684369105C9F700008091C00064
:10FC40008D7F8093C00081E180935700E895EE2777
:10FC5000FF270994FFCF90E00D941AF497FB092E2B
:10FC600007260AD077FD04D02ED006D000201AF443
:10FC7000709561957F4F0895F6F7909581959F4F08
:10FC80000895A1E21A2EAA1BBB1BFD010DC0AA1FDD
:10FC9000BB1FEE1FFF1FA217B307E407F50720F0F5
:10FCA000A21BB30BE40BF50B661F771F881F991F70
:10FCB0001A9469F760957095809590959B01AC01B9
:10FCC000BD01CF010895AA1BBB1B51E107C0AA1FAC
:10FCD000BB1FA617B70710F0A61BB70B881F991FED
:10FCE0005A95A9F780959095BC01CD010895F99991
:10FCF000FECF92BD81BDF89A992780B50895262F31
:10FD0000F999FECF1FBA92BD81BD20BD0FB6F89400
:0EFD1000FA9AF99A0FBE01960895F894FFCF63
:040000033000E000E9
:00000001FF